:020000040800F2
:10000000A8060020210200080702000809020008D3
:100010000D0200081102000815020008000000008F
:1000200000000000000000000000000019020008AD
:100030001B020008000000001D0200081F0200084B
:100040003B0200083B0200083B0200083B0200089C
:100050003B0200083B0200083B0200083B0200088C
:100060003B0200083B0200083B0200083B0200087C
:100070003B0200083B0200083B0200083B0200086C
:100080003B0200083B0200083B0200083B0200085C
:100090003B0200083B0200083B0200083B0200084C
:1000A0003B0200083B0200083B0200083B0200083C
:1000B000692000083B0200083B0200083B020008E0
:1000C0003B0200083B0200083B0200083B0200081C
:1000D0003B0200083F2300083B02000815240008EB
:1000E0003B0200083B0200083B0200083B020008FC
:1000F0003B0200083B0200083B0200083B020008EC
:100100003B0200083B0200083B0200083B020008DB
:100110003B0200083B0200083B0200083B020008CB
:100120003B0200083B0200083B0200083B020008BB
:1001300000F002F800F03AF80AA090E8000C8244BF
:100140008344AAF10107DA4501D100F02FF8AFF29C
:10015000090EBAE80F0013F0010F18BFFB1A43F0A5
:1001600001031847F835000018360000103A24BF84
:1001700078C878C1FAD8520724BF30C830C144BF0C
:1001800004680C607047000000230024002500264E
:10019000103A28BF78C1FBD8520728BF30C148BFEA
:1001A0000B6070471FB51FBD10B510BD03F0A7FA57
:1001B0001146FFF7F7FF00F008F803F0C5FA03B4A3
:1001C000FFF7F2FF03BC02F051F801F04EFE01F020
:1001D000C3FE01F014FF002140F2833002F07FFAE9
:1001E00002F07AFB4FF4A06000F03AF841F61F41AC
:1001F000092001F00BFF4FF4E13002F096F802F015
:1002000001F900BFFEE7704700BFFEE700BFFEE751
:1002100000BFFEE700BFFEE77047704770477047BA
:100220000948804709480047FEE7FEE7FEE7FEE78A
:10023000FEE7FEE7FEE7FEE7FEE7FEE704480549C6
:10024000054A064B70470000391D000831010008BF
:10025000A8000020A8060020A8020020A802002074
:1002600031490143314A1160704770B500210023C4
:100270000F22C4780CB32D4C246804F4E064C4F558
:10028000E064210AC1F10403CA40447804FA03F18E
:100290008478144021430901254C0678A15504783F
:1002A00004F01F050124AC4005786D114FF0E026E5
:1002B00006EB8505C5F8004109E0047804F01F0548
:1002C0000124AC401B4D0678761145F8264070BDE0
:1002D000194A0A400243154B1B1F1A60704739B177
:1002E000124A121D12680243104B1B1D1A6006E0D1
:1002F0000E4A121D126882430C4B1B1D1A60704778
:10030000042808D14FF0E021096941F004014FF0C1
:10031000E022116107E04FF0E021096921F00401BA
:100320004FF0E022116170470000FA050CED00E08B
:1003300000E400E080E100E080FFFF1F10B504460C
:10034000CA48844208D10121042000F027FB002183
:10035000042000F023FB46E0C548844208D1012177
:10036000082000F01BFB0021082000F017FB3AE0FA
:10037000C048844208D10121102000F00FFB002169
:10038000102000F00BFB2EE0BB48844208D1012175
:10039000202000F003FB0021202000F0FFFA22E0E3
:1003A000B648844208D10121402000F0F7FA00212C
:1003B000402000F0F3FA16E0B148844208D1012150
:1003C000802000F0EBFA0021802000F0E7FA0AE03C
:1003D000AC48844207D10121801500F0DFFA0021EA
:1003E000A01500F0DBFA10BD10B50121084600F0A1
:1003F000D5FA0021012000F0D1FA10BD2DE9F0411D
:10040000024600250026002000230024002791F842
:1004100003C00CF00F0591F803C01CF0100F03D0BF
:1004200091F802C04CEA050591F800C0BCF1000F3C
:1004300031D0146800202BE04FF0010C0CFA00F3CF
:10044000B1F800C00CEA03069E4220D183004FF0B1
:100450000F0C0CFA03F7BC4305FA03FC4CEA040446
:1004600091F803C0BCF1280F06D14FF0010C0CFA33
:1004700000FCC2F814C00AE091F803C0BCF1480FB8
:1004800005D14FF0010C0CFA00FCC2F810C0401C62
:100490000828D1D31460B1F800C0BCF1FF0F34DDDF
:1004A000546800202EE000F1080C4FF0010808FA13
:1004B0000CF3B1F800C00CEA03069E4221D1830080
:1004C0004FF00F0C0CFA03F7BC4305FA03FC4CEA9F
:1004D000040491F803C0BCF1280F05D100F1080C09
:1004E00008FA0CF8C2F8148091F803C0BCF1480F68
:1004F00007D100F1080C4FF0010808FA0CF8C2F817
:100500001080401C0828CED35460BDE8F0814FF61F
:10051000FF710180022181700421C1707047024681
:10052000002093680B4201D0012000E000207047BA
:100530000146886880B2704702460020D3680B42AB
:1005400001D0012000E0002070470146C86880B259
:10055000704701617047416170470AB1016100E075
:1005600041617047C16070474FF480320A43826135
:100570008161826182698269704702460020424B34
:1005800018684FF68073184040EA021008433E4B4B
:10059000186070473D49C8617047F0B50A460023AE
:1005A00000240021002500F00046B6F1004F02D1E2
:1005B000354EF16901E0344E7168C0F3034583B2F2
:1005C00000F44016B6F5401F08D121F070612E4EA0
:1005D000766826F070662C4F7E6012E000F480167C
:1005E000B6F5801F06D1032606FA05F4A14341F0B3
:1005F000706106E0460D360103FA06F6B14341F09C
:10060000706122B1460D360103FA06F6314300F05F
:100610000046B6F1004F02D11B4EF16101E01A4EC7
:100620007160F0BD30B500228B071C0F0F2303FA59
:1006300004F2154B08338C1053F824309343124CBA
:1006400008348D1044F8253023468C1053F824309C
:100650008C07240F00FA04F423430B4C08348D104C
:1006600044F8253030BD0A49086070470008014051
:10067000000C01400010014000140140001801402E
:10068000001C014000200140000001400000204209
:10069000DC002042DD48006840F00100DB490860D2
:1006A00008464068DA490840D8494860084600686A
:1006B000D8490840D54908600846006820F48020E1
:1006C00008600846406820F4FE0048604FF41F00B0
:1006D00088607047CD49096821F48031CB4A1160A8
:1006E0001146096821F480211160B0F5803F03D0E4
:1006F000B0F5802F0ED106E0C449096841F480317D
:10070000C24A116007E0C149096841F4A021BF4A0B
:10071000116000E000BF00BF704710B50146002225
:10072000002300204A11012A02D1B84C236806E0B8
:10073000022A02D1B54C236A01E0B44C636A01F08D
:100740001F02012494401C4201D0012000E000203F
:1007500010BD38B5002000900024002500BF3120D6
:10076000FFF7DBFF05460098401C00900098B0F5AD
:10077000A06F01D0002DF2D03120FFF7CEFF08B1DD
:10078000012400E00024204638BD014600209F4A95
:10079000106820F0F80040EAC100106070479E49E0
:1007A0000860704702460020984B586820F47C107F
:1007B00042EA01031843954B586070479649086612
:1007C000704701460020914A506820F0030008431A
:1007D000506070478D48406800F00C00704701463B
:1007E00000208A4A506820F0F000084350607047AB
:1007F00001460020854A506820F4E06008435060BC
:10080000704701460020814A506820F4605040EA59
:10081000C1005060704729B17C4A527A02437B4B39
:100820005A7204E0794A527A8243784B5A7270477E
:100830007A490860704701460020744A506820F4E5
:1008400040400843506070470021754A11706F4A5C
:1008500082F82010012802D0042808D103E00121E9
:100860006F4A117004E005216D4A117000E000BF6D
:1008700000BF70476B49086070476449096A0143CB
:10088000624A11627047674944390860704730B561
:1008900000210022002400235C4D6D6805F00C014E
:1008A00021B1042905D0082923D105E05E4D05605A
:1008B00022E05D4D05601FE0544D6D6805F4701237
:1008C000524D6D6805F48034022505EB92421CB947
:1008D000564D554305600BE04C4D6D6815F4003FD7
:1008E00003D0524D5543056002E04F4D554305601E
:1008F00002E04D4D056000BF00BF444D6D6805F03E
:10090000F00109094A4D6B5C0568DD4045603F4DCB
:100910006D6805F4E061090A454D6B5C4568DD4092
:1009200085603A4D6D6805F46051C90A404D6B5CB5
:100930004568DD40C560354D6D6805F44041890B63
:100940003C4D6B5CC568B5FBF3F5056130BD29B165
:100950002E4A526902432D4B5A6104E02B4A5269D8
:1009600082432A4B5A61704729B1284A926902434F
:10097000264B9A6104E0254A92698243234B9A618F
:10098000704729B1214AD2690243204BDA6104E061
:100990001E4AD26982431D4BDA61704729B11B4A56
:1009A000D2680243194BDA6004E0184AD2688243E5
:1009B000164BDA60704729B1144A12690243134B8F
:1009C0001A6104E0114A12698243104B1A617047A0
:1009D00014494039086070470F49C86470470B4993
:1009E000C87170470948406A40F080700749486202
:1009F000704701460020054A92680A4201D0012052
:100A000000E00020704701498872704700100240E2
:100A10000000FFF8FFFFF6FE00004242D80042420D
:100A2000201002408004424200127A0000093D007A
:100A3000000000201000002010B50446FE4884424B
:100A400008D10121C014FFF7A9FF0021E014FFF72E
:100A5000A5FFC4E0B4F1804F08D101210846FFF79B
:100A6000AAFF00210120FFF7A6FFB8E0F348844267
:100A700008D101210220FFF79EFF00210220FFF78D
:100A80009AFFACE0EE48844208D101210420FFF730
:100A900092FF00210420FFF78EFFA0E0E948844286
:100AA00008D101210820FFF786FF00210820FFF769
:100AB00082FF94E0E448844208D101211020FFF72E
:100AC0007AFF00211020FFF776FF88E0DF4884429C
:100AD00008D101212020FFF76EFF00212020FFF721
:100AE0006AFF7CE0DA48844208D101214014FFF714
:100AF00055FF00216014FFF751FF70E0D548844294
:100B000009D10121C804FFF749FF00214FF400205B
:100B1000FFF744FF63E0D048844209D10121080572
:100B2000FFF73CFF00214FF48010FFF737FF56E03E
:100B3000CA48844209D101214805FFF72FFF00214F
:100B40004FF40010FFF72AFF49E0C548844208D15E
:100B500001214020FFF72FFF00214020FFF72BFF4E
:100B60003DE0C048844208D101218020FFF723FFE7
:100B700000218020FFF71FFF31E0BB48844208D1ED
:100B800001218015FFF717FF0021A015FFF713FFC4
:100B900025E0B648844209D101210804FFF7FEFE92
:100BA00000214FF48030FFF7F9FE18E0B04884428E
:100BB00009D101214804FFF7F1FE00214FF4003074
:100BC000FFF7ECFE0BE0AB48844208D1012188041A
:100BD000FFF7E4FE00214FF48020FFF7DFFE10BD99
:100BE00000220288944B98420ED0994B98420BD029
:100BF000B0F1804F08D0914B984205D0904B98426D
:100C000002D0904B984204D14FF68F731A404B8814
:100C10001A438D4B984207D08C4B984204D04FF624
:100C2000FF431A40CB881A4302808B8883850B8848
:100C30000385814B98420BD0854B984208D08B4B53
:100C4000984205D08A4B984202D08A4B984201D1F3
:100C50000B7A038601238382704770B5002400223B
:100C60000023058C4FF6FE7635400584028C838880
:100C7000048B4FF68F752C40B51E2C400D882C43ED
:100C8000751E2A400D892A434D882A436A4DA84281
:100C90000BD06F4DA84208D0744DA84205D0744DBA
:100CA000A84202D0734DA84213D14FF6F7752A40DF
:100CB0004D892A434FF6FB752A408D882A434FF60B
:100CC000FF652B404FF6FF552B408D892B43CD8977
:100CD0002B4383800483CD888586028470BD70B5E4
:100CE000002400220023058C4FF6EF763540058462
:100CF000028C8388048B48F6FF752C404FF6FF4525
:100D00002C400D884FF6FF7606EA05252C434FF65A
:100D1000DF752A400D8906EA05152A434D8806EA43
:100D200005152A43444DA84202D0494DA8421DD181
:100D30004FF67F752A404D894FF6FF7606EA051576
:100D40002A434FF6BF752A408D8806EA05152A43C7
:100D50004FF6FF352B404FF2FF752B408D8906EA89
:100D600085052B43CD8906EA85052B4383800483C3
:100D7000CD880587028470BD70B500240022002351
:100D8000058C4FF6FF6635400584028C8388848B82
:100D90004FF68F752C404FF6FC752C400D882C4378
:100DA0004FF6FF552A400D894FF6FF7606EA0525D6
:100DB0002A434D8806EA05252A431F4DA84202D042
:100DC000234DA8421DD14FF2FF752A404D894FF6A1
:100DD000FF7606EA05252A434FF6FF352A408D881F
:100DE00006EA05252A434EF6FF752B404DF6FF75A2
:100DF0002B408D8906EA05152B43CD8906EA05159A
:100E00002B4383808483CD888587028470BD70B531
:100E1000002200230024058C4EF6FF763540058421
:100E2000038C8488828B48F6FF752A404FF6FF4575
:100E30002A400D8820E00000002C01400004004002
:100E400000080040000C004000100040001400406A
:100E500000340140004C014000500140005401406A
:100E600000180040001C00400020004000400140ED
:100E700000440140004801404FF6FF7606EA052590
:100E80002A434DF6FF752B400D8906EA05352B43A5
:100E90004D8806EA05352B43FA4DA84202D0FA4D9B
:100EA000A84208D14BF6FF752C408D894FF6FF768E
:100EB00006EA85152C4384808283CD88A0F84050B3
:100EC000038470BD828B4FF2FF331A408283828B82
:100ED0004FF6FF7303EA01231A4382837047F0B58C
:100EE0000C461546002200210026078C4EF6FF7C9A
:100EF00007EA0C070784828B018C4FF6FF7707EA1D
:100F0000043640F6FF473A404FF6FF7707EA0527D9
:100F10003A434FF6FF7707EA03373A43D94FB842CF
:100F20000ED0D94FB8420BD0B0F1804F08D0D74F78
:100F3000B84205D0D64FB84202D0D64FB84206D1FB
:100F40004DF6FF77394046F48057394305E047F6C0
:100F5000FF57394044F48057394382830184F0BD00
:100F6000828B4FF6F3731A408283828B0A4382830B
:100F70007047F0B50C461546002200210026078C6C
:100F80004FF6FF6C07EA0C070784828B018C4FF643
:100F9000FF7707EA04264FF60C773A404FF6FF77C3
:100FA00007EA03172F433A43B64FB8420ED0B64F65
:100FB000B8420BD0B0F1804F08D0B44FB84205D042
:100FC000B34FB84202D0B34FB84206D14FF6FF57E5
:100FD000394046F48077394305E04FF2FF573940F6
:100FE00044F48077394382830184F0BD028B4FF251
:100FF000FF331A400283028B4FF6FF7303EA01238B
:101000001A4302837047F0B50C46154600220021B2
:101010000026078C4FF6EF7C07EA0C070784028B4B
:10102000018C4FF6FF7707EA041640F6FF473A4077
:101030004FF6FF7707EA03373A434FF6FF7707EAA1
:1010400005273A438F4FB8420ED08F4FB8420BD08E
:10105000B0F1804F08D08D4FB84205D08C4FB842C8
:1010600002D08C4FB84206D14FF6DF77394046F0B8
:101070001007394305E04FF65F77394044F0100719
:10108000394302830184F0BD028B4FF6F3731A409B
:101090000283028B0A4302837047F0B50C46154663
:1010A00000220021068C4FF6FE773E400684028B1C
:1010B000018C4FF60C7632407E1C06EA03162E4356
:1010C0003243704EB0420ED06F4EB0420BD0B0F1F2
:1010D000804F08D06D4EB04205D06D4EB04202D068
:1010E0006C4EB04206D14FF6FD76314044F0010619
:1010F000314305E04FF6F576314044F001063143C7
:1011000002830184F0BD70B505460C465D488542FA
:101110000ED05D4885420BD0B5F1804F08D05B48BA
:10112000854205D05A48854202D05A48854200D1AE
:1011300000E000BF208850B92389A2886188284632
:10114000FFF7ABFFE1882846FFF79EFF25E02088E8
:1011500004280AD12389A28861882846FFF753FF13
:10116000E1882846FFF742FF17E0208808280AD1C7
:101170002389A28861882846FFF7FBFEE18828467C
:10118000FFF7EEFE09E02389A28861882846FFF771
:10119000A6FEE1882846FFF795FE70BD2DE9F041D7
:1011A00005460C4600260127608808B9022600E0A3
:1011B0000026A088012801D1022700E0012720880D
:1011C000A0B92389A28861882846FFF766FFE188D5
:1011D0002846FFF759FF23893A4631462846FFF74C
:1011E00012FFE1882846FFF701FF13E02389A28858
:1011F00061882846FFF707FFE1882846FFF7F6FEDB
:1012000023893A4631462846FFF747FFE1882846BA
:10121000FFF73AFFBDE8F0810A884B881A438B88B4
:101220001A43CB881A430B891A434B891A438B897B
:101230001A43A0F8442070474FF6FF7181800021C7
:101240000180C1804180017270470021018041808E
:101250008180C180018141818181C18170470021EC
:1012600001804180012181800021C180018170477E
:101270000021018041808180C18001814181818183
:1012800070470000002C0140003401400004004081
:1012900000080040000C004021B1028842F0010229
:1012A000028004E002884FF6FE731A400280704705
:1012B00031B1B0F8442042F40042A0F8442005E0E7
:1012C000B0F84420C2F30E02A0F8442070471AB1CF
:1012D00083890B43838102E083898B438381704739
:1012E0008182704741EA0203A0F8483070471AB182
:1012F00083890B43838102E083898B438381704719
:1013000001894FF6F8721140018170470A460021A9
:1013100001894FF68F73194011430181704730B531
:1013200004460D4629462046FFF7F0FF208940F08D
:101330000700208130BD2DE9F04104460D461646D8
:101340001F46602D06D13B46012231462046FFF75D
:101350005AFE05E03B46012231462046FFF79DFE3E
:1013600029462046FFF7D2FF208940F00700208160
:10137000BDE8F08130B50C4600210189C9B24FF6B5
:10138000FF7505EA0325154325432943018130BD37
:101390002DE9F04105460E4617469846002443467F
:1013A0003A4631462846FFF7E5FF2C894FF6F8709C
:1013B000044044F007044FF68F70044044F070047A
:1013C0002C81BDE8F081F0B504460D4616461F4657
:1013D0003B46324629462046FFF7CCFF208940F4A1
:1013E00080402081F0BD0185828270470A4600213D
:1013F00001884FF68F731940114301807047F0B593
:101400000C4615461E460021002200230189028B4E
:10141000038C4FF6F877394021434FF6FC473A40AA
:1014200040F201173A434FF6DD773B404FF6FF7726
:1014300007EA06172F433B43018102830384F0BD73
:101440000A460021018B4FF68F7319401143018327
:1014500070470A460021018B48F6FF7319404FF68A
:10146000FF7303EA02231943018370470A460021F0
:10147000818B4FF68F7319401143818370470A4661
:101480000021818B48F6FF7319404FF6FF7303EA82
:10149000022319438183704721B1028842F0800200
:1014A000028004E002884FF67F731A400280704782
:1014B00021B1828842F00402828004E082884FF6E3
:1014C000FB731A408280704721B1828842F0080283
:1014D000828004E082884FF6F7731A40828070475A
:1014E00021B1828842F00102828004E082884FF6B6
:1014F000FE731A40828070470A460021018B4FF626
:10150000F77319401143018370470A460021018B8C
:101510004FF2FF7319404FF6FF7303EA022319439A
:10152000018370470A460021818B4FF6F7731940FB
:101530001143818370470A460021818B4FF2FF736C
:1015400019404FF6FF7303EA022319438183704762
:101550000A460021018B4FF6FB73194011430183AA
:1015600070470A460021018B4FF6FF3319404FF6B2
:10157000FF7303EA02231943018370470A460021DF
:10158000818B4FF6FB7319401143818370470A46E4
:101590000021818B4FF6FF3319404FF6FF7303EAAA
:1015A00002231943818370470A460021018B4FF6BD
:1015B0007F7319401143018370470A460021018B54
:1015C000C1F30E014FF6FF7303EA022319430183AF
:1015D00070470A460021818B4FF67F7319401143F3
:1015E000818370470A460021818BC1F30E014FF6BB
:1015F000FF7303EA02231943818370470A460021DF
:10160000018C4FF6FD7319401143018470470A465F
:101610000021018C4FF6F773194011430184704784
:101620000A460021018C4FF6DF7319404FF6FF7315
:1016300003EA02131943018470470A460021018C12
:101640004FF67F7319404FF6FF7303EA02131943F5
:10165000018470470A460021018C4FF6FF53194060
:101660004FF6FF7303EA02231943018470470A46C9
:101670000021018C4FF2FF7319404FF6FF7303EA0C
:1016800002231943018470470A460021018C4DF65C
:10169000FF7319404FF6FF7303EA023319430184C5
:1016A000704730B5002301248C40A3B2048C9C43C6
:1016B0000484048C02FA01F5ADB22C43048430BDDD
:1016C00030B5002304248C40A3B2048C9C430484D2
:1016D000048C02FA01F5ADB22C43048430BD70B520
:1016E0000346002000241846183001258D40ACB276
:1016F0001D8CA5431D8409B1082909D100EB6100A7
:10170000056825F0700505600568154305600EE065
:101710000D1FC5F34E052844056825F4E045056016
:1017200005684FF6FF7606EA02263543056070BD70
:1017300021B1028842F00202028004E002884FF6E2
:10174000FD731A400280704721B1028842F0040202
:10175000028004E002884FF6FB731A400280704753
:1017600021B1828842F08002828004E082884FF6B4
:101770007F731A408280704702884FF6F7731A40D1
:10178000028002880A430280704782884FF68F7376
:101790001A40828082880A438280704702894FF60D
:1017A000F8731A40028102890A4302817047028954
:1017B0004FF67F731A40028102890A430281704703
:1017C00081847047818570478186704701877047A3
:1017D00081877047A0F84010704702884FF6FF439A
:1017E0001A40028002880A43028070470146888EB0
:1017F00070470146088F70470146888F7047014641
:10180000B1F8400070470146888C70470146088D4A
:10181000704702460020138A0B4201D0012000E0ED
:1018200000207047CA430282704730B5024600204C
:1018300000230024158A05EA0103958905EA0104BD
:1018400013B10CB1012000E0002030BDCA43028278
:101850007047000010B50446FB48844209D10121BD
:101860008803FFF79BF800214FF48040FFF796F8BC
:1018700032E0F648844209D101214804FFF79BF881
:1018800000214FF40030FFF796F825E0F04884423D
:1018900009D101218804FFF78EF800214FF4802040
:1018A000FFF789F818E0EB48844209D10121C80408
:1018B000FFF781F800214FF40020FFF77CF80BE0E0
:1018C000E548844208D101210805FFF774F800219A
:1018D0004FF48010FFF76FF810BD2DE9F04786B088
:1018E00005460E460024A24600BFA1460027B08947
:1018F00000B100BF2F462C8A4CF6FF700440F088E0
:1019000004432C82AC894EF6F3100440B088318930
:101910000843718908430443AC81AC8A4FF6FF4009
:101920000440B0890443AC8201A8FEF7B0FFC6486A
:10193000874202D1DDF810A001E0DDF80CA0A889F3
:1019400010F4004F08D00AEBCA0000EB0A1031680F
:101950004900B0FBF1F807E00AEBCA0000EB0A10FF
:1019600031688900B0FBF1F86420B8FBF0F00401A5
:101970002009642101FB1089A88910F4004F08D0C8
:10198000322000EBC900B0FBF1F000F00700044387
:1019900008E0322000EB09106421B0FBF1F000F008
:1019A0000F0004432C8106B0BDE8F0874FF41651B8
:1019B000016000218180C18001810C2141810021D1
:1019C0008181704710B502460020108A4FF2FF0354
:1019D00018400B884C8823438C882343CC882343AE
:1019E0001843108210BD0021018041808180C18098
:1019F000704721B1828942F40052828104E08289D9
:101A00004DF6FF731A4082817047F0B503460024FB
:101A1000002600250020A1F510676A3F00D100BF15
:101A20001846C1F3421401F01F06012707FA06F514
:101A3000012C01D10C3004E0022C01D1103000E067
:101A400014301AB107682F43076002E00768AF43FC
:101A50000760F0BD1AB1838A0B43838202E0838A58
:101A60008B4383827047028A4FF6F0731A400282DA
:101A7000028A0A430282704782894FF2FF731A403A
:101A8000828182890A438281704721B1828942F032
:101A90000202828104E082894FF6FD731A4082813E
:101AA0007047028A4FF6DF731A400282028A0A43A5
:101AB0000282704721B1028A42F48042028204E02D
:101AC000028A4BF6FF731A4002827047C1F3080284
:101AD0008280704701468888C0F30800704781897A
:101AE00041F0010181817047028BD2B20283028BE7
:101AF00042EA012202837047028B02F47F42028392
:101B0000028B0A430283704721B1828A42F020028D
:101B1000828204E0828A4FF6DF731A408282704725
:101B200021B1828A42F01002828204E0828A4FF65A
:101B3000EF731A408282704721B1828A42F0080214
:101B4000828204E0828A4FF6F7731A4082827047DD
:101B500021B1828942F40042828103E08289C2F38A
:101B60000E028281704721B1828A42F40062828231
:101B700004E0828A4FF2FF731A4082827047828AA1
:101B80004FF6FB731A408282828A0A438282704730
:101B900021B1828A42F00202828204E0828A4FF6F8
:101BA000FD731A408282704702460020B1F5007F23
:101BB00000D100BF13880B4201D0012000E00020BB
:101BC000704701F40072B2F5007F00D100BFCA4334
:101BD0000280704770B502460024002300250020D3
:101BE000A1F510666A3E00D100BFC1F3421501F0B5
:101BF0001F03012606FA03F3012D02D19689334013
:101C000006E0022D02D1168A334001E0968A334065
:101C10000C12012606FA04F41688344013B10CB1F4
:101C2000012000E0002070BD10B500220023A1F5C6
:101C300010646A3C00D100BF0A1201249440A3B290
:101C4000DC43048010BD0000003801400044004027
:101C500000480040004C0040005000400CB50020FF
:101C6000019000906B48006840F48030694908603A
:101C700000BF6848006800F4003000900198401CE4
:101C80000190009818B90198B0F5A06FF1D16148A2
:101C9000006810F4003F02D00120009001E0002015
:101CA00000900098012842D15B48006840F0100085
:101CB000594908600846006820F00300086008469B
:101CC000006840F00200086052484068514948608E
:101CD0000846406848600846406840F480604860B4
:101CE0000846406820F47C1048600846406840F48C
:101CF000E81048600846006840F08070086000BF47
:101D00004448006810F0007FFAD04248406820F054
:101D10000300404948600846406840F002004860BF
:101D200000BF3C48406800F00C000828F9D10CBD09
:101D300010B5FFF793FF10BD10B53648006840F0AE
:101D40000100344908600846406834490840314978
:101D5000486008460068324908402E490860084635
:101D6000006820F4802008600846406820F4FE00E7
:101D700048604FF41F008860FFF7DAFF4FF0006003
:101D80002849086010BD10B5002100200022214B19
:101D90005B6803F00C0121B1042906D0082928D181
:101DA00007E0214B214C236027E01F4B1F4C236091
:101DB00023E0184B5B6803F47010164B5B6803F468
:101DC0008032022303EB904022B9194B4343174C56
:101DD00023600DE00F4B5B6813F4003F04D0144BFD
:101DE0004343124C236003E00F4B43430F4C2360EB
:101DF00003E00D4B0D4C236000BF00BF054B5B683B
:101E0000C3F303130B4CE15C084B1B68CB40074C3E
:101E1000236010BD00100240002002400000FFF8C7
:101E2000FFFFF6FE08ED00E000127A00140000202B
:101E300000093D001800002008B501210820FEF728
:101E400093FD4FF47870ADF8000003208DF8020088
:101E500010208DF8030069462C48FEF7CFFA4FF4A6
:101E600078712A48FEF777FB08BD10B5FFF7E4FF4D
:101E700010BD70B505460C46062D3FD2DFE805F0D3
:101E80003E030E19243124B920212048FEF763FBBC
:101E900003E020211D48FEF75CFB35E024B940211A
:101EA0001A48FEF758FB03E040211848FEF751FBA3
:101EB0002AE024B980211548FEF74DFB03E080217C
:101EC0001248FEF746FB1FE02CB94FF480710F4813
:101ED000FEF741FB04E04FF480710C48FEF739FB3C
:101EE00012E02CB94FF400710848FEF734FB04E00F
:101EF0004FF400710548FEF72CFB05E04FF47871B4
:101F00000248FEF728FB00BF00BF70BD000C014077
:101F100008B501211C20FEF727FD1020ADF80000B8
:101F200048208DF8030069462948FEF767FA3020FB
:101F3000ADF8000048208DF8030069462548FEF7FB
:101F40005DFA0320ADF8000048208DF803006946D3
:101F50002148FEF753FA08BD10B5FFF7D9FF10BDB1
:101F600010B50446062C31D2DFE804F030030C151E
:101F70001E2710211648FEF7D2FA08B1012010BD25
:101F80000020FCE710211348FEF7C9FA08B1012030
:101F9000F5E70020F3E720210E48FEF7C0FA08B16C
:101FA0000120ECE70020EAE701210B48FEF7B7FA31
:101FB00008B10120E3E70020E1E702210648FEF72F
:101FC000AEFA08B10120DAE70020D8E70020D6E712
:101FD0000008014000100140000C014008B501213B
:101FE0002020FEF7C1FC4FF4E060ADF8000048206F
:101FF0008DF8030069460448FEF700FA08BD10B5E5
:10200000FFF7ECFF10BD0000001401407FB505464E
:102010000C4601210846FEF7B4FCADF80850ADF8B7
:1020200004400020ADF80A00ADF8060001A94FF009
:102030008040FEF7D5FD012211469007FFF747F9D2
:102040001C208DF8000000208DF8010003208DF881
:10205000020001208DF803006846FEF706F9012111
:102060008807FFF719F97FBD10B501218807FFF731
:10207000DCFB002870D001218807FFF7E7FB7348DD
:102080000078002869D140217148FEF748FA0128FC
:1020900021D17048007800287ED020216C48FEF7BE
:1020A0003EFA012818D100206A4908706A49087070
:1020B0006A4908706A49087001206A49087000BFBF
:1020C0004FF478716848FEF746FA20216048FEF721
:1020D00026FA0128F4D08CE010215D48FEF71FFAA3
:1020E000012819D100205B4908705B4908705B49E1
:1020F000087001205A49087000205A49087000BF32
:102100004FF478715848FEF726FA10215048FEF730
:1021100006FA0128F4D06CE008214D48FEF7FFF9DB
:1021200001281BD100204B4908704B490870012041
:102130004A49087000204A4908704A49087000BF9F
:102140004FF478714848FEF706FA08214048FEF738
:10215000E6F90128F4D04CE077E050E004213C4857
:10216000FEF7DDF9012844D100203A49087001202A
:1021700039490870002039490870394908703949CF
:10218000087000BF4FF478713748FEF7E4F9042176
:102190002F48FEF7C4F900E002E00128F2D028E061
:1021A00001212B48FEF7BBF9012822D10221284842
:1021B000FEF7B5F901281CD12649087000202849EE
:1021C000087025490870254908702649087000BF25
:1021D0004FF478712448FEF7BEF901211C48FEF740
:1021E0009EF9012805D102211948FEF798F9012826
:1021F000EED016480078401C1449087025E01348BA
:102200000078012821D11348007820B100F023FB89
:1022100000F068FB16E01048007810B101F099F961
:1022200010E00E48007810B100F0FEFF0AE00C4804
:10223000007810B100F09EFB04E00A48007808B175
:1022400001F0C5F800200149087010BD28000020E9
:10225000001401403A0000203B0000203C00002018
:102260003D0000203E000020000C0140014600BF60
:10227000704700BF904A128812F0400FFAD0C2B2E5
:102280008D4B1B1D1A80704708B525208DF8000066
:1022900003208DF801008DF8020001208DF8030065
:1022A0006846FDF7E2FF08BD1FB50446012188031B
:1022B000FEF75AFB00940020ADF80400ADF80600CC
:1022C000ADF80800ADF80C000C20ADF80A00694626
:1022D0007948FFF702FB012240F225517648FFF7CB
:1022E00094FB01217448FFF784FB1FBD08B5012151
:1022F0000420FEF739FB4FF40070ADF80000032016
:102300008DF8020018208DF8030069466B48FEF72F
:1023100075F84FF48060ADF8000004208DF80300DC
:1023200069466648FEF76AF808BD10B50446FFF72F
:10233000DDFF2046FFF7B8FFFFF7A6FF10BD10B581
:1023400040F225515C48FFF745FC38B15A48FFF789
:10235000C1FB044621465848FFF7B8FB10BD1FB526
:1023600001218804FEF70DFB4FF4E13000900020BE
:10237000ADF80400ADF80600ADF80800ADF80C00AB
:102380000C20ADF80A0069464D48FFF7A6FA012275
:1023900040F225514A48FFF738FB01214848FFF732
:1023A00028FB1FBD08B527208DF8000003208DF8FD
:1023B000010002208DF8020001208DF8030068461C
:1023C000FDF753FF08BD08B501210820FEF7CCFA40
:1023D0004FF48060ADF8000003208DF80200182053
:1023E0008DF8030069463748FEF708F84FF400609F
:1023F000ADF8000004208DF8030069463148FDF770
:10240000FDFF08BD10B5FFF7DEFFFFF7CBFFFFF7BD
:10241000A6FF10BD10B540F225512948FFF7DAFBA1
:10242000002847D040F225512548FFF7FDFB2448FE
:10243000FFF750FBC4B224480078082839D2DFE8FF
:1024400000F0040A141A20262C32FE2C02D101209E
:102450001D4908702DE0082C03D102201A4908708C
:1024600002E000201849087023E018480470032097
:10247000154908701DE01548447004201249087081
:1024800017E01248847005200F49087011E00F48CA
:10249000C47006200C4908700BE00C48047107203A
:1024A0000949087005E00A2C02D10020064908708D
:1024B00000BF00BF10BD000000380140000801400F
:1024C00000480040000C01402C0000203400002097
:1024D00030B587B005460C4601210220FEF751FABF
:1024E000ADF81450ADF810400020ADF81600ADF86E
:1024F000120004A9E948FEF773FB6020ADF8000064
:102500000120ADF802000020ADF808006946E3485C
:10251000FEF7A3FB6020ADF800000120ADF802003B
:102520000020ADF808006946DC48FEF7D8FB6020C3
:10253000ADF800000120ADF802000020ADF8080061
:102540006946D648FEF718FC6020ADF8000001206F
:10255000ADF802000020ADF808006946CF48FEF74C
:1025600056FC0821CD48FEF7C7FF0821CB48FEF7EF
:10257000CCFF0821C948FEF7D5FF0821C748FEF760
:10258000DAFF0121C548FEF787FF0121C348FEF7A6
:1025900083FE07B030BD30B587B005460C4601213B
:1025A000C802FEF7E1F9ADF81450ADF81040002074
:1025B000ADF81600ADF8120004A9B948FEF710FBFB
:1025C0006020ADF800000120ADF802000020ADF859
:1025D0000600ADF808006946B148FEF73EFB6946C3
:1025E000AF48FEF77CFB6946AD48FEF7C5FB694680
:1025F000AB48FEF70CFC0821A948FEF77DFF082137
:10260000A748FEF782FF0821A548FEF78BFF0821A7
:10261000A348FEF790FF0121A148FEF73DFF0121ED
:102620009F48FEF745FE01219D48FEF735FE07B0A5
:1026300030BD08B501213120FEF796F901219948F6
:10264000FDF7ABFF4FF47070ADF8000018208DF867
:10265000030003208DF8020069469348FDF7CEFE83
:102660004FF44040ADF8000003208DF80200102028
:102670008DF8030069468D48FDF7C0FE4FF44041D8
:102680008A48FDF766FF08BD08B501214120FEF725
:102690006BF901218648FDF780FF4FF4D440ADF877
:1026A000000018208DF8030003208DF80200694611
:1026B0008048FDF7A3FE4FF4A050ADF800000320C2
:1026C0008DF8020010208DF8030069467948FDF767
:1026D00095FE4FF4A0517748FDF73BFF08BD70B55C
:1026E00004460D46FFF7D0FFFFF7A3FF294620461B
:1026F000FFF751FF29462046FFF7EAFE70BD10B5EF
:10270000044604F5C87084B2B4F5617F01DD4FF46E
:10271000617421466248FFF75BF800216048FFF7CB
:1027200059F821465E48FFF74FF800215C48FFF753
:102730004DF821465948FFF747F800215748FFF761
:1027400045F821465548FFF743F800215348FFF765
:1027500041F810BD10B5044604F5C87084B2B4F554
:10276000617F01DD4FF4617400214D48FFF730F8BF
:1027700021464B48FFF72EF800214948FFF724F87F
:1027800021464748FFF722F800214448FFF71CF88C
:1027900021464248FFF71AF800214048FFF718F891
:1027A00021463E48FFF716F810BD10B5044604F563
:1027B000C87084B2B4F5617F01DD4FF4617400210B
:1027C0003748FFF705F821463548FFF703F80021A1
:1027D0003348FEF7F9FF21463148FEF7F7FF21465F
:1027E0002E48FEF7F1FF00212C48FEF7EFFF2146AF
:1027F0002A48FEF7EDFF00212848FEF7EBFF10BD49
:1028000010B5044604F5C87084B2B4F5617F01DDEB
:102810004FF4617421462248FEF7DAFF0021204878
:10282000FEF7D8FF21461E48FEF7CEFF00211C48C8
:10283000FEF7CCFF00211948FEF7C6FF21461748D6
:10284000FEF7C4FF00211548FEF7C2FF21461348DA
:10285000FEF7C0FF10BD10B500211148FEF7B8FF0C
:1028600000210F48FEF7B6FF00210D48FEF7ACFF30
:1028700000210B48FEF7AAFF00210848FEF7A4FF3D
:1028800000210648FEF7A2FF00210448FEF7A0FF42
:1028900000210248FEF79EFF10BD0000000400402A
:1028A000002C0140000C1A000010014000140140EF
:1028B000C00016000018014008B501212020FEF7D5
:1028C00053F87F20ADF8000004208DF8030069461E
:1028D0000348FDF793FD08BD10B5FFF7EDFF10BDF0
:1028E0000014014010B50120FFF73AFB012804D184
:1028F00001210520FFF7BDFA03E000210520FFF7C5
:10290000B8FA0220FFF72CFB012804D10121042092
:10291000FFF7AFFA03E000210420FFF7AAFA032033
:10292000FFF71EFB012804D101210320FFF7A1FAC4
:1029300003E000210320FFF79CFA0420FFF710FBBF
:10294000012804D101210220FFF793FA03E00021BE
:102950000220FFF78EFA0520FFF702FB012804D1C1
:1029600001210846FFF785FA03E000210120FFF767
:1029700080FA10BD10B5FA24FFF7B4FF4021FE48DD
:10298000FDF7CDFD01287DD12021FB48FDF7C7FDD6
:10299000012818D11021F848FDF7C1FD012812D1F6
:1029A00000BF00BF4FF47871F448FDF7D4FD01215A
:1029B000F148FDF7B4FD012805D10221EE48FDF7ED
:1029C000AEFD0128EED02021EB48FDF7A8FD01283F
:1029D00011D1A4F1320084B2322C00DA322400BFCB
:1029E0004FF47871E548FDF7B6FD2021E248FDF788
:1029F00096FD0128F4D01021DF48FDF790FD012855
:102A000013D104F1320084B2B4F5FA7F01DD4FF442
:102A1000FA7400BF4FF47871D848FDF79CFD10217F
:102A2000D548FDF77CFD0128F4D00821D248FDF7F8
:102A300076FD01280FD12046FFF7E2FE4FF47871B2
:102A4000CE48FDF788FD01210846FFF712FA012163
:102A50000220FFF70EFA0421C748FDF760FD0128A8
:102A60000FD12046FFF7A1FE4FF47871C348FDF760
:102A700072FD01210520FFF7FCF901210420FFF779
:102A8000F8F900E034E00221BB48FDF748FD0128D9
:102A900013D12046FFF75EFE4FF47871B748FDF77B
:102AA0005AFD01210520FFF7E4F901210320FFF77A
:102AB000E0F901210846FFF7DCF90121AE48FDF7F6
:102AC0002EFD012813D12046FFF719FE4FF478712F
:102AD000AA48FDF740FD01210420FFF7CAF90121B2
:102AE0000320FFF7C6F901210220FFF7C2F9C9E26E
:102AF0000120FFF735FA00287DD10220FFF730FAD8
:102B00000028F9D10420FFF72BFA012804D0052072
:102B1000FFF726FA0128EFD14FF4C870FFF770FED7
:102B20004FF480719448FDF7FAFC00BB4FF48061CC
:102B30009148FDF7F4FCD0B94FF400718E48FDF7D1
:102B4000EEFCA0B93220FFF705FE4FF478718B48F8
:102B5000FDF701FD01210520FFF78BF9012103207D
:102B6000FFF787F901210846FFF783F98AE24FF45E
:102B700080718148FDF7D3FC012820D181027E4875
:102B8000FDF7CDFCD8B94FF400717B48FDF7C7FCC9
:102B9000012814D13220FFF7DDFD4FF4787177481A
:102BA000FDF7D9FC01210520FFF763F9012103207E
:102BB000FFF75FF901210846FFF75BF962E24FF486
:102BC00080716D48FDF7ABFCC8B94FF400716A48DD
:102BD000FDF7A5FC012812D13220FFF711FE4FF4BA
:102BE00078716648FDF7B7FC01210846FFF741F907
:102BF0000121022000E020E0FFF73BF942E24FF420
:102C000080715D48FDF78BFC0128AFD141025A4825
:102C1000FDF785FC0028A9D13220FFF7C6FD4FF44F
:102C200078715648FDF797FC01210520FFF721F93F
:102C300001210420FFF71DF924E20120FFF790F99C
:102C4000012804D00220FFF78BF9012879D1042054
:102C5000FFF786F920B10520FFF782F9002870D12F
:102C60004FF4C870FFF7A1FD4FF480714248FDF7A3
:102C700056FC00BB4FF480613F48FDF750FCD0B9D3
:102C80004FF400713C48FDF74AFCA0B93220FFF731
:102C900061FD4FF478713948FDF75DFC0121052095
:102CA000FFF7E7F801210320FFF7E3F801210846C9
:102CB000FFF7DFF8E6E14FF480712F48FDF72FFCB6
:102CC000012820D181022C48FDF729FCD8B94FF406
:102CD00000712948FDF723FC012814D13220FFF7A9
:102CE00039FD4FF478712548FDF735FC01210520A9
:102CF000FFF7BFF801210320FFF7BBF801210846C9
:102D0000FFF7B7F8BEE14FF480711B48FDF707FCF1
:102D1000C0B94FF400711848FDF701FC012811D12A
:102D20003220FFF76DFD4FF478711448FDF713FC66
:102D300001210846FFF79DF801210220FFF799F8CD
:102D4000A0E122E04FF480710B48FDF7E8FB012879
:102D5000B0D141020848FDF7E2FB0028AAD1322099
:102D6000FFF723FD4FF478710448FDF7F4FB0121D0
:102D70000520FFF77EF803E000140140000C01403D
:102D800001210420FFF775F87CE10120FFF7E8F846
:102D9000012813D10220FFF7E3F801280ED1032008
:102DA000FFF7DEF8012809D10420FFF7D9F8012840
:102DB00004D10520FFF7D4F8012818D00120FFF72F
:102DC000CFF800287ED10220FFF7CAF80028F9D1F9
:102DD0000320FFF7C5F80028F4D10420FFF7C0F85E
:102DE00000286FD10520FFF7BBF800286AD100BF8B
:102DF000C820FFF7DAFC4FF48071F948FDF78FFB2C
:102E000000BB4FF48061F648FDF789FBD0B94FF461
:102E10000071F348FDF783FBA0B93220FFF79AFC5D
:102E20004FF47871EF48FDF796FB01210520FFF77D
:102E300020F801210320FFF71CF801210846FFF7C5
:102E400018F863E04FF48071E548FDF768FB01284E
:102E500020D18102E248FDF762FBD8B94FF400713E
:102E6000DF48FDF75CFB012814D13220FFF772FC2C
:102E70004FF47871DB48FDF76EFB01210520FEF76A
:102E8000F8FF01210320FEF7F4FF01210846FEF7B9
:102E9000F0FF3BE04FF48071D148FDF740FBC8B92B
:102EA0004FF40071CE48FDF73AFB012812D13220D1
:102EB000FFF7A6FC4FF47871CA48FDF74CFB0121DF
:102EC000084600E03DE0FEF7D4FF01210220FEF7B6
:102ED000D0FF1BE04FF48071C148FDF720FB0128B3
:102EE00014D14102BE48FDF71AFB78B93220FFF732
:102EF0005CFC4FF47871BB48FDF72DFB01210520E8
:102F0000FEF7B7FF01210420FEF7B3FF0120FFF712
:102F100027F8002814D10220FFF722F800280FD14B
:102F20000320FFF71DF801280AD10420FFF718F845
:102F3000002805D10520FFF713F800283FF458AF0B
:102F4000A0E0C820FFF7DBFB4FF48071A448FDF739
:102F5000E6FA00BB4FF48061A148FDF7E0FAD0B972
:102F60004FF400719E48FDF7DAFAA0B93220FFF75E
:102F7000F1FB4FF478719B48FDF7EDFA0121052034
:102F8000FEF777FF01210320FEF773FF01210846BA
:102F9000FEF76FFF76E04FF480719148FDF7BFFABE
:102FA000012820D181028E48FDF7B9FAD8B94FF433
:102FB00000718B48FDF7B3FA012814D13220FFF7D6
:102FC000C9FB4FF478718748FDF7C5FA0121052048
:102FD000FEF74FFF01210320FEF74BFF01210846BA
:102FE000FEF747FF4EE04FF480717D48FDF797FAFA
:102FF000B8B94FF400717A48FDF791FA012810D161
:103000003220FFF7FDFB4FF478717648FDF7A3FA05
:1030100001210846FEF72DFF01210220FEF729FFBE
:1030200030E04FF480716E48FDF779FA012815D130
:1030300041026B48FDF773FA80B93220FFF7B5FB08
:103040004FF478716748FDF786FA01210520FEF7F5
:1030500010FF01210420FEF70CFF13E03220FFF7E0
:103060004EFB4FF478715F48FDF775FA012104209B
:10307000FEF7FFFE01210320FEF7FBFE01210220E7
:10308000FEF7F7FE10BD10B504462078602876D014
:103090000ADCA0F15000092816D2DFE800F00E1675
:1030A0002EC346C3C3C35A0061286ED062287BD0AA
:1030B00064287AD0682807D1AEE0FFF7CCFB4FF444
:1030C00078714848FDF745FAACE0A178627841EAAA
:1030D0000220FFF714FB4FF478714248FDF73BFAEA
:1030E00001210420FEF7C5FE01210320FEF7C1FEE9
:1030F00001210220FEF7BDFE94E0A178627841EA4A
:103100000220FFF727FB4FF478713648FDF723FACA
:1031100001210520FEF7ADFE01210320FEF7A9FEE7
:1031200001210846FEF7A5FE7CE02179E27841EA1C
:103130000220FFF73AFB4FF478712A48FDF70BFAAB
:1031400001210520FEF795FE01210420FEF791FEE6
:1031500068E02179E27841EA0220FFF751FB4FF461
:1031600078712048FDF7F7F901210220FEF781FE72
:1031700001210846FEF77DFE54E000E005E04FF433
:1031800078711848FDF7E7F94CE060781F2802D005
:10319000A0781F280AD101210520FEF76AFE01212F
:1031A0000420FEF766FE09E009E01DE0002105208D
:1031B000FEF75FFE00210420FEF75BFE32E0607840
:1031C0001F2802D0A0781F2804D101210320FEF778
:1031D00050FE03E000210320FEF74BFE22E000003A
:1031E00000140140000C014060781F2802D0A07834
:1031F0001F2808D101210220FEF73BFE01210846CD
:10320000FEF737FE07E000210220FEF732FE002124
:103210000120FEF72EFE05E04FF47871FE48FDF721
:1032200098F900BF00BF10BD10B54021FB48FDF765
:1032300076F901287ED12021F848FDF770F90128A0
:103240001AD11021F548FDF76AF9012814D1FA20A6
:10325000F349088000BF4FF47871EF48FDF77BF920
:103260000121EE48FDF75BF9012805D10221EB4869
:10327000FDF755F90128EED02021E848FDF74FF978
:10328000012816D1E64800883238E549088008460A
:103290000088322801DA3220088000BF4FF47871AC
:1032A000DD48FDF758F92021DC48FDF738F9012801
:1032B000F4D01021D948FDF732F9012818D1D848A7
:1032C00000883230D649088008460088B0F5FA7F79
:1032D00002DD4FF4FA70088000BF4FF47871CE48D9
:1032E000FDF739F91021CD48FDF719F90128F4D07F
:1032F0000821CA48FDF713F9012810D1C8480088F1
:10330000FFF77EFA4FF47871C348FDF724F90121E5
:103310000846FEF7AEFD01210220FEF7AAFD0421BA
:10332000BE48FDF7FCF8012812D1BD480088FFF720
:103330003CFA00E043E04FF47871B748FDF70BF931
:1033400001210520FEF795FD01210420FEF791FDE6
:103350000221B248FDF7E3F8012814D1B0480088F3
:10336000FFF7F8F94FF47871AB48FDF7F4F8012155
:103370000520FEF77EFD01210320FEF77AFD0121E5
:103380000846FEF776FD0121A448FDF7C8F801289C
:103390001CD1A3480088FFF7B2F94FF478719E481A
:1033A000FDF7D9F801210420FEF763FD0121032078
:1033B000FEF75FFD01210220FEF75BFD06E0FFF74F
:1033C0004AFA4FF478719448FDF7C3F810BD10B570
:1033D0004FF480719148FDF7A2F858B94FF480611D
:1033E0008E48FDF79CF828B94FF400718B48FDF723
:1033F00096F848B10120FEF7B3FD012819D1052048
:10340000FEF7AEFD012814D1C820FFF7A3F94FF451
:1034100078718148FDF79FF801210520FEF729FD0D
:1034200001210320FEF725FD01210846FEF721FDBD
:103430008EE04FF480717948FDF771F801280BD1C7
:1034400081027648FDF76BF830B94FF4007173488C
:10345000FDF765F8012809D00120FEF781FD01285C
:1034600015D10520FEF77CFD012810D1C820FFF7FB
:1034700071F94FF478716848FDF76DF80121052066
:10348000FEF7F7FC01210420FEF7F3FC60E04FF4A7
:1034900080716248FDF743F830B94FF400715F481E
:1034A000FDF73DF8012808D00120FEF759FD01285D
:1034B00014D10520FEF754FD80B9C820FFF775F937
:1034C0004FF478715448FDF746F801210846FEF79D
:1034D000D0FC01210220FEF7CCFC39E04FF48071D2
:1034E0004E48FDF71CF8012804D141024B48FDF776
:1034F00016F840B10120FEF733FDA8B90520FEF70C
:103500002FFD012810D1C820FFF77AF94FF4787108
:103510004148FDF720F801210520FEF7AAFC012112
:103520000420FEF7A6FC13E0C820FFF7E8F84FF4EC
:1035300078713948FDF70FF801210420FEF799FC56
:1035400001210320FEF795FC01210220FEF791FCEA
:1035500010BD10B54FF480713048FCF7E0FF58B94A
:103560004FF480612D48FCF7DAFF28B94FF4007161
:103570002A48FCF7D4FF48B10120FEF7F1FC0128EE
:1035800019D10520FEF7ECFC012814D16420FFF7C7
:10359000E1F84FF478712048FCF7DDFF01210520A8
:1035A000FEF767FC01210320FEF763FC01210846BA
:1035B000FEF75FFC99E04FF480711848FCF7AFFF0D
:1035C00001280BD181021548FCF7A9FF30B94FF44F
:1035D00000711248FCF7A3FF012809D00120FEF773
:1035E000BFFC012821D10520FEF7BAFC01281CD11F
:1035F0006420FFF784F84FF478710748FCF7ABFFBD
:1036000001210520FEF735FC01210320FEF731FCE6
:103610000121084606E00000000C014000140140B2
:1036200040000020FEF725FC5FE04FF480712F483A
:10363000FCF775FF30B94FF400712C48FCF76FFFB1
:10364000012808D00120FEF78BFC012814D10520A9
:10365000FEF786FC80B96420FFF7D2F84FF478714A
:103660002348FCF778FF01210846FEF702FC012100
:103670000220FEF7FEFB38E04FF480711B48FCF798
:103680004EFF012804D141021848FCF748FF40B121
:103690000120FEF765FCA8B90520FEF761FC0128B2
:1036A00010D16420FFF781F84FF478711048FCF7CF
:1036B00052FF01210520FEF7DCFB01210420FEF76B
:1036C000D8FB12E0FFF7C7F84FF478710848FCF711
:1036D00042FF01210420FEF7CCFB01210320FEF76D
:1036E000C8FB01210220FEF7C4FB10BD00140140FD
:1036F000000C01407047704770477047704775462F
:1037000000F028F8AE4605006946534620F0070051
:10371000854618B020B5FCF791FDBDE820404FF07C
:1037200000064FF000074FF000084FF0000B21F0AB
:103730000701AC46ACE8C009ACE8C009ACE8C00978
:10374000ACE8C0098D4670470446AFF300802046C0
:10375000FCF735FD00487047440000207C37000826
:1037600000000020440000006C010008C037000881
:1037700044000020640600008801000800000000EA
:1037800001020304010203040607080902040608F3
:1037900000A24A040000000000000000010203042F
:1037A00006070809000000000000000000000000FB
:1037B000000000000000010000000000FA0000000E
:0400000508000131BD
:00000001FF
